{
  "_format": "hh-sol-artifact-1",
  "contractName": "DefiBank",
  "sourceName": "contracts/Bank.sol",
  "abi": [
    {
      "inputs": [],
      "stateMutability": "nonpayable",
      "type": "constructor"
    },
    {
      "anonymous": false,
      "inputs": [
        {
          "indexed": true,
          "internalType": "address",
          "name": "user",
          "type": "address"
        }
      ],
      "name": "AccountCreated",
      "type": "event"
    },
    {
      "anonymous": false,
      "inputs": [
        {
          "indexed": true,
          "internalType": "address",
          "name": "user",
          "type": "address"
        },
        {
          "indexed": false,
          "internalType": "uint256",
          "name": "interest",
          "type": "uint256"
        }
      ],
      "name": "BonusApplied",
      "type": "event"
    },
    {
      "anonymous": false,
      "inputs": [
        {
          "indexed": true,
          "internalType": "address",
          "name": "user",
          "type": "address"
        },
        {
          "indexed": false,
          "internalType": "uint256",
          "name": "amount",
          "type": "uint256"
        }
      ],
      "name": "DepositMade",
      "type": "event"
    },
    {
      "anonymous": false,
      "inputs": [
        {
          "indexed": true,
          "internalType": "address",
          "name": "sender",
          "type": "address"
        },
        {
          "indexed": true,
          "internalType": "address",
          "name": "receiver",
          "type": "address"
        },
        {
          "indexed": false,
          "internalType": "uint256",
          "name": "amount",
          "type": "uint256"
        }
      ],
      "name": "TransferMade",
      "type": "event"
    },
    {
      "anonymous": false,
      "inputs": [
        {
          "indexed": true,
          "internalType": "address",
          "name": "user",
          "type": "address"
        },
        {
          "indexed": false,
          "internalType": "uint256",
          "name": "amount",
          "type": "uint256"
        }
      ],
      "name": "WithdrawalMade",
      "type": "event"
    },
    {
      "inputs": [
        {
          "internalType": "uint256",
          "name": "_montant",
          "type": "uint256"
        }
      ],
      "name": "CalculBonus",
      "outputs": [
        {
          "internalType": "uint256",
          "name": "",
          "type": "uint256"
        }
      ],
      "stateMutability": "pure",
      "type": "function"
    },
    {
      "inputs": [],
      "name": "ConsulterSolde",
      "outputs": [
        {
          "internalType": "uint256",
          "name": "",
          "type": "uint256"
        }
      ],
      "stateMutability": "view",
      "type": "function"
    },
    {
      "inputs": [
        {
          "internalType": "uint256",
          "name": "_montant",
          "type": "uint256"
        }
      ],
      "name": "DeposerArgent",
      "outputs": [],
      "stateMutability": "payable",
      "type": "function"
    },
    {
      "inputs": [
        {
          "internalType": "address",
          "name": "_receiver",
          "type": "address"
        },
        {
          "internalType": "uint256",
          "name": "_montant",
          "type": "uint256"
        }
      ],
      "name": "PretArgent",
      "outputs": [],
      "stateMutability": "nonpayable",
      "type": "function"
    },
    {
      "inputs": [
        {
          "internalType": "uint256",
          "name": "_montant",
          "type": "uint256"
        }
      ],
      "name": "RetirerArgent",
      "outputs": [],
      "stateMutability": "nonpayable",
      "type": "function"
    },
    {
      "inputs": [
        {
          "internalType": "address",
          "name": "_receiver",
          "type": "address"
        },
        {
          "internalType": "uint256",
          "name": "_montant",
          "type": "uint256"
        }
      ],
      "name": "TransfererArgent",
      "outputs": [],
      "stateMutability": "nonpayable",
      "type": "function"
    },
    {
      "inputs": [
        {
          "internalType": "address",
          "name": "",
          "type": "address"
        }
      ],
      "name": "comptes",
      "outputs": [
        {
          "internalType": "address",
          "name": "titulaire",
          "type": "address"
        },
        {
          "internalType": "string",
          "name": "nom",
          "type": "string"
        },
        {
          "internalType": "uint256",
          "name": "solde",
          "type": "uint256"
        }
      ],
      "stateMutability": "view",
      "type": "function"
    },
    {
      "inputs": [
        {
          "internalType": "string",
          "name": "_name",
          "type": "string"
        },
        {
          "internalType": "uint256",
          "name": "_montant",
          "type": "uint256"
        }
      ],
      "name": "creerCompte",
      "outputs": [],
      "stateMutability": "nonpayable",
      "type": "function"
    },
    {
      "inputs": [],
      "name": "owner",
      "outputs": [
        {
          "internalType": "address",
          "name": "",
          "type": "address"
        }
      ],
      "stateMutability": "view",
      "type": "function"
    }
  ],
  "bytecode": "0x6080604052348015600f57600080fd5b50336000806101000a81548173ffffffffffffffffffffffffffffffffffffffff021916908373ffffffffffffffffffffffffffffffffffffffff160217905550611e548061005f6000396000f3fe6080604052600436106100865760003560e01c806336044f1c1161005957806336044f1c146101385780637a072faf146101615780638da5cb5b1461018a5780638df9dcc7146101b5578063f00201a1146101e057610086565b8063096cd36f1461008b57806313a6ea17146100a7578063284b35bc146100e6578063293dc8c41461010f575b600080fd5b6100a560048036038101906100a0919061143f565b61021d565b005b3480156100b357600080fd5b506100ce60048036038101906100c991906114ca565b6104b0565b6040516100dd939291906115a5565b60405180910390f35b3480156100f257600080fd5b5061010d60048036038101906101089190611718565b610582565b005b34801561011b57600080fd5b5061013660048036038101906101319190611774565b610774565b005b34801561014457600080fd5b5061015f600480360381019061015a9190611774565b610ab6565b005b34801561016d57600080fd5b506101886004803603810190610183919061143f565b610e86565b005b34801561019657600080fd5b5061019f611154565b6040516101ac91906117b4565b60405180910390f35b3480156101c157600080fd5b506101ca611178565b6040516101d791906117cf565b60405180910390f35b3480156101ec57600080fd5b506102076004803603810190610202919061143f565b611292565b60405161021491906117cf565b60405180910390f35b600073ffffffffffffffffffffffffffffffffffffffff16600160003373ffffffffffffffffffffffffffffffffffffffff1673ffffffffffffffffffffffffffffffffffffffff16815260200190815260200160002060000160009054906101000a900473ffffffffffffffffffffffffffffffffffffffff1673ffffffffffffffffffffffffffffffffffffffff16036102ee576040517f08c379a00000000000000000000000000000000000000000000000000000000081526004016102e590611836565b60405180910390fd5b80600160003373ffffffffffffffffffffffffffffffffffffffff1673ffffffffffffffffffffffffffffffffffffffff16815260200190815260200160002060020160008282546103409190611885565b92505081905550600061035282611292565b905060008111156104055780600160003373ffffffffffffffffffffffffffffffffffffffff1673ffffffffffffffffffffffffffffffffffffffff16815260200190815260200160002060020160008282546103af9190611885565b925050819055503373ffffffffffffffffffffffffffffffffffffffff167f948f272c38f5898521ba3febad2f88262819590372a458f5d586e1754d1d67e1826040516103fc91906117cf565b60405180910390a25b81600160003373ffffffffffffffffffffffffffffffffffffffff1673ffffffffffffffffffffffffffffffffffffffff16815260200190815260200160002060020160008282546104579190611885565b925050819055503373ffffffffffffffffffffffffffffffffffffffff167fd15c9547ea5c06670c0010ce19bc32d54682a4b3801ece7f3ab0c3f17106b4bb836040516104a491906117cf565b60405180910390a25050565b60016020528060005260406000206000915090508060000160009054906101000a900473ffffffffffffffffffffffffffffffffffffffff16908060010180546104f9906118e8565b80601f0160208091040260200160405190810160405280929190818152602001828054610525906118e8565b80156105725780601f1061054757610100808354040283529160200191610572565b820191906000526020600020905b81548152906001019060200180831161055557829003601f168201915b5050505050908060020154905083565b600073ffffffffffffffffffffffffffffffffffffffff16600160003373ffffffffffffffffffffffffffffffffffffffff1673ffffffffffffffffffffffffffffffffffffffff16815260200190815260200160002060000160009054906101000a900473ffffffffffffffffffffffffffffffffffffffff1673ffffffffffffffffffffffffffffffffffffffff1614610653576040517f08c379a000000000000000000000000000000000000000000000000000000000815260040161064a90611965565b60405180910390fd5b60405180606001604052803373ffffffffffffffffffffffffffffffffffffffff16815260200183815260200182815250600160003373ffffffffffffffffffffffffffffffffffffffff1673ffffffffffffffffffffffffffffffffffffffff16815260200190815260200160002060008201518160000160006101000a81548173ffffffffffffffffffffffffffffffffffffffff021916908373ffffffffffffffffffffffffffffffffffffffff160217905550602082015181600101908161071f9190611b31565b50604082015181600201559050503373ffffffffffffffffffffffffffffffffffffffff167f805996f252884581e2f74cf3d2b03564d5ec26ccc90850ae12653dc1b72d1fa260405160405180910390a25050565b600073ffffffffffffffffffffffffffffffffffffffff16600160003373ffffffffffffffffffffffffffffffffffffffff1673ffffffffffffffffffffffffffffffffffffffff16815260200190815260200160002060000160009054906101000a900473ffffffffffffffffffffffffffffffffffffffff1673ffffffffffffffffffffffffffffffffffffffff1603610845576040517f08c379a000000000000000000000000000000000000000000000000000000000815260040161083c90611836565b60405180910390fd5b600073ffffffffffffffffffffffffffffffffffffffff16600160008473ffffffffffffffffffffffffffffffffffffffff1673ffffffffffffffffffffffffffffffffffffffff16815260200190815260200160002060000160009054906101000a900473ffffffffffffffffffffffffffffffffffffffff1673ffffffffffffffffffffffffffffffffffffffff1603610916576040517f08c379a000000000000000000000000000000000000000000000000000000000815260040161090d90611836565b60405180910390fd5b80600160003373ffffffffffffffffffffffffffffffffffffffff1673ffffffffffffffffffffffffffffffffffffffff16815260200190815260200160002060020154101561099b576040517f08c379a000000000000000000000000000000000000000000000000000000000815260040161099290611c4f565b60405180910390fd5b80600160003373ffffffffffffffffffffffffffffffffffffffff1673ffffffffffffffffffffffffffffffffffffffff16815260200190815260200160002060020160008282546109ed9190611c6f565b9250508190555080600160008473ffffffffffffffffffffffffffffffffffffffff1673ffffffffffffffffffffffffffffffffffffffff1681526020019081526020016000206002016000828254610a469190611885565b925050819055508173ffffffffffffffffffffffffffffffffffffffff163373ffffffffffffffffffffffffffffffffffffffff167f422971e1d1a7c8b68372f65fe1426aef054f0c6290124a929c843c5c019521d683604051610aaa91906117cf565b60405180910390a35050565b60008054906101000a900473ffffffffffffffffffffffffffffffffffffffff1673ffffffffffffffffffffffffffffffffffffffff163373ffffffffffffffffffffffffffffffffffffffff1614610b44576040517f08c379a0000000000000000000000000000000000000000000000000000000008152600401610b3b90611cef565b60405180910390fd5b600073ffffffffffffffffffffffffffffffffffffffff16600160003373ffffffffffffffffffffffffffffffffffffffff1673ffffffffffffffffffffffffffffffffffffffff16815260200190815260200160002060000160009054906101000a900473ffffffffffffffffffffffffffffffffffffffff1673ffffffffffffffffffffffffffffffffffffffff1603610c15576040517f08c379a0000000000000000000000000000000000000000000000000000000008152600401610c0c90611836565b60405180910390fd5b600073ffffffffffffffffffffffffffffffffffffffff16600160008473ffffffffffffffffffffffffffffffffffffffff1673ffffffffffffffffffffffffffffffffffffffff16815260200190815260200160002060000160009054906101000a900473ffffffffffffffffffffffffffffffffffffffff1673ffffffffffffffffffffffffffffffffffffffff1603610ce6576040517f08c379a0000000000000000000000000000000000000000000000000000000008152600401610cdd90611836565b60405180910390fd5b80600160003373ffffffffffffffffffffffffffffffffffffffff1673ffffffffffffffffffffffffffffffffffffffff168152602001908152602001600020600201541015610d6b576040517f08c379a0000000000000000000000000000000000000000000000000000000008152600401610d6290611c4f565b60405180910390fd5b80600160003373ffffffffffffffffffffffffffffffffffffffff1673ffffffffffffffffffffffffffffffffffffffff1681526020019081526020016000206002016000828254610dbd9190611c6f565b9250508190555080600160008473ffffffffffffffffffffffffffffffffffffffff1673ffffffffffffffffffffffffffffffffffffffff1681526020019081526020016000206002016000828254610e169190611885565b925050819055508173ffffffffffffffffffffffffffffffffffffffff163373ffffffffffffffffffffffffffffffffffffffff167f422971e1d1a7c8b68372f65fe1426aef054f0c6290124a929c843c5c019521d683604051610e7a91906117cf565b60405180910390a35050565b60008054906101000a900473ffffffffffffffffffffffffffffffffffffffff1673ffffffffffffffffffffffffffffffffffffffff163373ffffffffffffffffffffffffffffffffffffffff1614610f14576040517f08c379a0000000000000000000000000000000000000000000000000000000008152600401610f0b90611cef565b60405180910390fd5b600073ffffffffffffffffffffffffffffffffffffffff16600160003373ffffffffffffffffffffffffffffffffffffffff1673ffffffffffffffffffffffffffffffffffffffff16815260200190815260200160002060000160009054906101000a900473ffffffffffffffffffffffffffffffffffffffff1673ffffffffffffffffffffffffffffffffffffffff1603610fe5576040517f08c379a0000000000000000000000000000000000000000000000000000000008152600401610fdc90611836565b60405180910390fd5b80600160003373ffffffffffffffffffffffffffffffffffffffff1673ffffffffffffffffffffffffffffffffffffffff16815260200190815260200160002060020154101561106a576040517f08c379a000000000000000000000000000000000000000000000000000000000815260040161106190611c4f565b60405180910390fd5b6110aa6040518060400160405280601081526020017f52657469726572202573206465202573000000000000000000000000000000008152508233611306565b80600160003373ffffffffffffffffffffffffffffffffffffffff1673ffffffffffffffffffffffffffffffffffffffff16815260200190815260200160002060020160008282546110fc9190611c6f565b925050819055503373ffffffffffffffffffffffffffffffffffffffff167fbc158bb64f05d6383aea69bbb0b20c1bbf4b7a18f63359c5649b7c39e29d38848260405161114991906117cf565b60405180910390a250565b60008054906101000a900473ffffffffffffffffffffffffffffffffffffffff1681565b60008073ffffffffffffffffffffffffffffffffffffffff16600160003373ffffffffffffffffffffffffffffffffffffffff1673ffffffffffffffffffffffffffffffffffffffff16815260200190815260200160002060000160009054906101000a900473ffffffffffffffffffffffffffffffffffffffff1673ffffffffffffffffffffffffffffffffffffffff160361124a576040517f08c379a000000000000000000000000000000000000000000000000000000000815260040161124190611836565b60405180910390fd5b600160003373ffffffffffffffffffffffffffffffffffffffff1673ffffffffffffffffffffffffffffffffffffffff16815260200190815260200160002060020154905090565b6000606482116112bc5760646005836112ab9190611d0f565b6112b59190611d80565b9050611301565b6101f482116112e55760646003836112d49190611d0f565b6112de9190611d80565b9050611301565b60646002836112f49190611d0f565b6112fe9190611d80565b90505b919050565b6113a083838360405160240161131e93929190611db1565b6040516020818303038152906040527f1c7ec448000000000000000000000000000000000000000000000000000000007bffffffffffffffffffffffffffffffffffffffffffffffffffffffff19166020820180517bffffffffffffffffffffffffffffffffffffffffffffffffffffffff83818316178352505050506113a5565b505050565b6113bc816113b46113bf6113e0565b63ffffffff16565b50565b60006a636f6e736f6c652e6c6f679050600080835160208501845afa505050565b6113eb819050919050565b6113f3611def565b565b6000604051905090565b600080fd5b600080fd5b6000819050919050565b61141c81611409565b811461142757600080fd5b50565b60008135905061143981611413565b92915050565b600060208284031215611455576114546113ff565b5b60006114638482850161142a565b91505092915050565b600073ffffffffffffffffffffffffffffffffffffffff82169050919050565b60006114978261146c565b9050919050565b6114a78161148c565b81146114b257600080fd5b50565b6000813590506114c48161149e565b92915050565b6000602082840312156114e0576114df6113ff565b5b60006114ee848285016114b5565b91505092915050565b6115008161148c565b82525050565b600081519050919050565b600082825260208201905092915050565b60005b83811015611540578082015181840152602081019050611525565b60008484015250505050565b6000601f19601f8301169050919050565b600061156882611506565b6115728185611511565b9350611582818560208601611522565b61158b8161154c565b840191505092915050565b61159f81611409565b82525050565b60006060820190506115ba60008301866114f7565b81810360208301526115cc818561155d565b90506115db6040830184611596565b949350505050565b600080fd5b600080fd5b7f4e487b7100000000000000000000000000000000000000000000000000000000600052604160045260246000fd5b6116258261154c565b810181811067ffffffffffffffff82111715611644576116436115ed565b5b80604052505050565b60006116576113f5565b9050611663828261161c565b919050565b600067ffffffffffffffff821115611683576116826115ed565b5b61168c8261154c565b9050602081019050919050565b82818337600083830152505050565b60006116bb6116b684611668565b61164d565b9050828152602081018484840111156116d7576116d66115e8565b5b6116e2848285611699565b509392505050565b600082601f8301126116ff576116fe6115e3565b5b813561170f8482602086016116a8565b91505092915050565b6000806040838503121561172f5761172e6113ff565b5b600083013567ffffffffffffffff81111561174d5761174c611404565b5b611759858286016116ea565b925050602061176a8582860161142a565b9150509250929050565b6000806040838503121561178b5761178a6113ff565b5b6000611799858286016114b5565b92505060206117aa8582860161142a565b9150509250929050565b60006020820190506117c960008301846114f7565b92915050565b60006020820190506117e46000830184611596565b92915050565b7f436f6d70746520696e6578697374616e74000000000000000000000000000000600082015250565b6000611820601183611511565b915061182b826117ea565b602082019050919050565b6000602082019050818103600083015261184f81611813565b9050919050565b7f4e487b7100000000000000000000000000000000000000000000000000000000600052601160045260246000fd5b600061189082611409565b915061189b83611409565b92508282019050808211156118b3576118b2611856565b5b92915050565b7f4e487b7100000000000000000000000000000000000000000000000000000000600052602260045260246000fd5b6000600282049050600182168061190057607f821691505b602082108103611913576119126118b9565b5b50919050565b7f436f6d707465206578697374616e740000000000000000000000000000000000600082015250565b600061194f600f83611511565b915061195a82611919565b602082019050919050565b6000602082019050818103600083015261197e81611942565b9050919050565b60008190508160005260206000209050919050565b60006020601f8301049050919050565b600082821b905092915050565b6000600883026119e77fffffffffffffffffffffffffffffffffffffffffffffffffffffffffffffffff826119aa565b6119f186836119aa565b95508019841693508086168417925050509392505050565b6000819050919050565b6000611a2e611a29611a2484611409565b611a09565b611409565b9050919050565b6000819050919050565b611a4883611a13565b611a5c611a5482611a35565b8484546119b7565b825550505050565b600090565b611a71611a64565b611a7c818484611a3f565b505050565b5b81811015611aa057611a95600082611a69565b600181019050611a82565b5050565b601f821115611ae557611ab681611985565b611abf8461199a565b81016020851015611ace578190505b611ae2611ada8561199a565b830182611a81565b50505b505050565b600082821c905092915050565b6000611b0860001984600802611aea565b1980831691505092915050565b6000611b218383611af7565b9150826002028217905092915050565b611b3a82611506565b67ffffffffffffffff811115611b5357611b526115ed565b5b611b5d82546118e8565b611b68828285611aa4565b600060209050601f831160018114611b9b5760008415611b89578287015190505b611b938582611b15565b865550611bfb565b601f198416611ba986611985565b60005b82811015611bd157848901518255600182019150602085019450602081019050611bac565b86831015611bee5784890151611bea601f891682611af7565b8355505b6001600288020188555050505b505050505050565b7f536f6c646520696e737566666973616e74000000000000000000000000000000600082015250565b6000611c39601183611511565b9150611c4482611c03565b602082019050919050565b60006020820190508181036000830152611c6881611c2c565b9050919050565b6000611c7a82611409565b9150611c8583611409565b9250828203905081811115611c9d57611c9c611856565b5b92915050565b7f4163636573732064656e69656400000000000000000000000000000000000000600082015250565b6000611cd9600d83611511565b9150611ce482611ca3565b602082019050919050565b60006020820190508181036000830152611d0881611ccc565b9050919050565b6000611d1a82611409565b9150611d2583611409565b9250828202611d3381611409565b91508282048414831517611d4a57611d49611856565b5b5092915050565b7f4e487b7100000000000000000000000000000000000000000000000000000000600052601260045260246000fd5b6000611d8b82611409565b9150611d9683611409565b925082611da657611da5611d51565b5b828204905092915050565b60006060820190508181036000830152611dcb818661155d565b9050611dda6020830185611596565b611de760408301846114f7565b949350505050565b7f4e487b7100000000000000000000000000000000000000000000000000000000600052605160045260246000fdfea26469706673582212209d132f7ade2fcc053bce98baef8a16fca6efcca3df6f8fccad7091119d051c1564736f6c634300081c0033",
  "linkReferences": {},
  "deployedLinkReferences": {}
}